{
  "contractName": "Puppy_Attack",
  "abi": [
    {
      "anonymous": false,
      "inputs": [
        {
          "indexed": false,
          "internalType": "uint256",
          "name": "_attackingPuppyId",
          "type": "uint256"
        },
        {
          "indexed": false,
          "internalType": "uint256",
          "name": "_targetedPuppyId",
          "type": "uint256"
        }
      ],
      "name": "FailAttack",
      "type": "event"
    },
    {
      "anonymous": false,
      "inputs": [
        {
          "indexed": false,
          "internalType": "uint256",
          "name": "_attackingPuppyId",
          "type": "uint256"
        },
        {
          "indexed": false,
          "internalType": "uint256",
          "name": "_targetedPuppyId",
          "type": "uint256"
        }
      ],
      "name": "SuccessAttack",
      "type": "event"
    },
    {
      "inputs": [],
      "name": "getAllPuppiesNumber",
      "outputs": [
        {
          "internalType": "uint256",
          "name": "",
          "type": "uint256"
        }
      ],
      "stateMutability": "view",
      "type": "function"
    },
    {
      "inputs": [
        {
          "internalType": "uint256",
          "name": "puppyId",
          "type": "uint256"
        }
      ],
      "name": "getMyPuppiesLevel",
      "outputs": [
        {
          "internalType": "uint256",
          "name": "",
          "type": "uint256"
        }
      ],
      "stateMutability": "view",
      "type": "function"
    },
    {
      "inputs": [
        {
          "internalType": "uint256",
          "name": "puppyId",
          "type": "uint256"
        }
      ],
      "name": "getMyPuppiesName",
      "outputs": [
        {
          "internalType": "string",
          "name": "",
          "type": "string"
        }
      ],
      "stateMutability": "view",
      "type": "function"
    },
    {
      "inputs": [
        {
          "internalType": "string",
          "name": "puppyName",
          "type": "string"
        }
      ],
      "name": "_create",
      "outputs": [],
      "stateMutability": "nonpayable",
      "type": "function"
    },
    {
      "inputs": [
        {
          "internalType": "uint256",
          "name": "puppyId",
          "type": "uint256"
        }
      ],
      "name": "_levelUp",
      "outputs": [],
      "stateMutability": "payable",
      "type": "function"
    },
    {
      "inputs": [
        {
          "internalType": "uint256",
          "name": "puppyId",
          "type": "uint256"
        },
        {
          "internalType": "string",
          "name": "newName",
          "type": "string"
        }
      ],
      "name": "_changeName",
      "outputs": [],
      "stateMutability": "nonpayable",
      "type": "function"
    },
    {
      "inputs": [
        {
          "internalType": "uint256",
          "name": "_attackingPuppyId",
          "type": "uint256"
        },
        {
          "internalType": "uint256",
          "name": "_targetedPuppyId",
          "type": "uint256"
        }
      ],
      "name": "_attack",
      "outputs": [],
      "stateMutability": "nonpayable",
      "type": "function"
    },
    {
      "inputs": [
        {
          "internalType": "uint256",
          "name": "puppyId",
          "type": "uint256"
        }
      ],
      "name": "revive",
      "outputs": [],
      "stateMutability": "payable",
      "type": "function"
    }
  ],
  "bytecode": "0x6080604052662386f26fc100006000556611c37937e0800060015534801561002657600080fd5b506111c2806100366000396000f3fe60806040526004361061007b5760003560e01c80639f9ee9081161004e5780639f9ee908146101fd578063af3634d714610228578063b40693ce146102f0578063ee392666146103a45761007b565b806309041449146100805780634a9010bb146100cf5780634da89bfb146100fd5780638baecc21146101cf575b600080fd5b34801561008c57600080fd5b506100b9600480360360208110156100a357600080fd5b81019080803590602001909291905050506103e9565b6040518082815260200191505060405180910390f35b6100fb600480360360208110156100e557600080fd5b8101908080359060200190929190505050610411565b005b34801561010957600080fd5b506101cd6004803603604081101561012057600080fd5b81019080803590602001909291908035906020019064010000000081111561014757600080fd5b82018360208201111561015957600080fd5b8035906020019184600183028401116401000000008311171561017b57600080fd5b91908080601f016020809104026020016040519081016040528093929190818152602001838380828437600081840152601f19601f8201169050808301925050505050505091929192905050506105fd565b005b6101fb600480360360208110156101e557600080fd5b81019080803590602001909291905050506106fe565b005b34801561020957600080fd5b506102126108ea565b6040518082815260200191505060405180910390f35b34801561023457600080fd5b506102ee6004803603602081101561024b57600080fd5b810190808035906020019064010000000081111561026857600080fd5b82018360208201111561027a57600080fd5b8035906020019184600183028401116401000000008311171561029c57600080fd5b91908080601f016020809104026020016040519081016040528093929190818152602001838380828437600081840152601f19601f8201169050808301925050505050505091929192905050506108f7565b005b3480156102fc57600080fd5b506103296004803603602081101561031357600080fd5b81019080803590602001909291905050506109e8565b6040518080602001828103825283818151815260200191508051906020019080838360005b8381101561036957808201518184015260208101905061034e565b50505050905090810190601f1680156103965780820380516001836020036101000a031916815260200191505b509250505060405180910390f35b3480156103b057600080fd5b506103e7600480360360408110156103c757600080fd5b810190808035906020019092919080359060200190929190505050610aa8565b005b6000600382815481106103f857fe5b9060005260206000209060040201600201549050919050565b806003818154811061041f57fe5b906000526020600020906004020160030160009054906101000a900473ffffffffffffffffffffffffffffffffffffffff1673ffffffffffffffffffffffffffffffffffffffff163373ffffffffffffffffffffffffffffffffffffffff16146104d4576040517f08c379a00000000000000000000000000000000000000000000000000000000081526004018080602001828103825260358152602001806111336035913960400191505060405180910390fd5b6000600383815481106104e357fe5b9060005260206000209060040201600201541161054b576040517f08c379a000000000000000000000000000000000000000000000000000000000815260040180806020018281038252603a815260200180611093603a913960400191505060405180910390fd5b60015434146105a5576040517f08c379a00000000000000000000000000000000000000000000000000000000081526004018080602001828103825260318152602001806111026031913960400191505060405180910390fd5b6105d76001600384815481106105b757fe5b906000526020600020906004020160020154610d0690919063ffffffff16565b600383815481106105e457fe5b9060005260206000209060040201600201819055505050565b816003818154811061060b57fe5b906000526020600020906004020160030160009054906101000a900473ffffffffffffffffffffffffffffffffffffffff1673ffffffffffffffffffffffffffffffffffffffff163373ffffffffffffffffffffffffffffffffffffffff16146106c0576040517f08c379a00000000000000000000000000000000000000000000000000000000081526004018080602001828103825260358152602001806111336035913960400191505060405180910390fd5b6000600384815481106106cf57fe5b90600052602060002090600402019050828160010190805190602001906106f7929190610f2f565b5050505050565b806003818154811061070c57fe5b906000526020600020906004020160030160009054906101000a900473ffffffffffffffffffffffffffffffffffffffff1673ffffffffffffffffffffffffffffffffffffffff163373ffffffffffffffffffffffffffffffffffffffff16146107c1576040517f08c379a00000000000000000000000000000000000000000000000000000000081526004018080602001828103825260358152602001806111336035913960400191505060405180910390fd5b6000600383815481106107d057fe5b90600052602060002090600402016002015414610838576040517f08c379a00000000000000000000000000000000000000000000000000000000081526004018080602001828103825260258152602001806111686025913960400191505060405180910390fd5b6000543414610892576040517f08c379a00000000000000000000000000000000000000000000000000000000081526004018080602001828103825260358152602001806110cd6035913960400191505060405180910390fd5b6108c46001600384815481106108a457fe5b906000526020600020906004020160020154610d0690919063ffffffff16565b600383815481106108d157fe5b9060005260206000209060040201600201819055505050565b6000600380549050905090565b6108ff610faf565b60405180608001604052806003805490508152602001838152602001600581526020013373ffffffffffffffffffffffffffffffffffffffff1681525090506003819080600181540180825580915050600190039060005260206000209060040201600090919091909150600082015181600001556020820151816001019080519060200190610990929190610fed565b506040820151816002015560608201518160030160006101000a81548173ffffffffffffffffffffffffffffffffffffffff021916908373ffffffffffffffffffffffffffffffffffffffff16021790555050505050565b6060600382815481106109f757fe5b90600052602060002090600402016001018054600181600116156101000203166002900480601f016020809104026020016040519081016040528092919081815260200182805460018160011615610100020316600290048015610a9c5780601f10610a7157610100808354040283529160200191610a9c565b820191906000526020600020905b815481529060010190602001808311610a7f57829003601f168201915b50505050509050919050565b8160038181548110610ab657fe5b906000526020600020906004020160030160009054906101000a900473ffffffffffffffffffffffffffffffffffffffff1673ffffffffffffffffffffffffffffffffffffffff163373ffffffffffffffffffffffffffffffffffffffff1614610b6b576040517f08c379a00000000000000000000000000000000000000000000000000000000081526004018080602001828103825260358152602001806111336035913960400191505060405180910390fd5b600060038381548110610b7a57fe5b90600052602060002090600402016002015411610b9657600080fd5b600060038481548110610ba557fe5b90600052602060002090600402019050600060038481548110610bc457fe5b906000526020600020906004020190506000610be06064610d8e565b905081600201548360020154118015610bf95750604681115b80610c17575081600201548360020154148015610c165750603281115b5b80610c35575081600201548360020154108015610c345750601e81115b5b15610c7e577f746d7417022fd01d9e0ec9c752ab63e9e99610ae98647ae3bc4934a9234ae77a8686604051808381526020018281526020019250505060405180910390a1610cfe565b610c9660018460020154610d0690919063ffffffff16565b8360020181905550610cb660018360020154610e2590919063ffffffff16565b82600201819055507f9d70f5f548eae84d9acc2e158a9e45f89a5847068d9a2e10d87f5a0a330b10638686604051808381526020018281526020019250505060405180910390a15b505050505050565b600080828401905083811015610d84576040517f08c379a000000000000000000000000000000000000000000000000000000000815260040180806020018281038252601b8152602001807f536166654d6174683a206164646974696f6e206f766572666c6f77000000000081525060200191505060405180910390fd5b8091505092915050565b60008060009050610da9600182610d0690919063ffffffff16565b905082423383604051602001808481526020018373ffffffffffffffffffffffffffffffffffffffff1673ffffffffffffffffffffffffffffffffffffffff1660601b815260140182815260200193505050506040516020818303038152906040528051906020012060001c81610e1c57fe5b06915050919050565b6000610e6783836040518060400160405280601e81526020017f536166654d6174683a207375627472616374696f6e206f766572666c6f770000815250610e6f565b905092915050565b6000838311158290610f1c576040517f08c379a00000000000000000000000000000000000000000000000000000000081526004018080602001828103825283818151815260200191508051906020019080838360005b83811015610ee1578082015181840152602081019050610ec6565b50505050905090810190601f168015610f0e5780820380516001836020036101000a031916815260200191505b509250505060405180910390fd5b5060008385039050809150509392505050565b828054600181600116156101000203166002900490600052602060002090601f016020900481019282601f10610f7057805160ff1916838001178555610f9e565b82800160010185558215610f9e579182015b82811115610f9d578251825591602001919060010190610f82565b5b509050610fab919061106d565b5090565b6040518060800160405280600081526020016060815260200160008152602001600073ffffffffffffffffffffffffffffffffffffffff1681525090565b828054600181600116156101000203166002900490600052602060002090601f016020900481019282601f1061102e57805160ff191683800117855561105c565b8280016001018555821561105c579182015b8281111561105b578251825591602001919060010190611040565b5b509050611069919061106d565b5090565b61108f91905b8082111561108b576000816000905550600101611073565b5090565b9056fe596f7572207075707079206e6565647320746f2062652072657669766564206265666f726520796f752063616e206c6576656c2069742075702e596f752077696c6c206e65656420746f2070617920302e303120657468657220746f2072657669766520796f75722070757070792e506c656173652070617920746865206578616374206c6576656c20757020666565206f6620302e3030352065746865722e506c65617365206d616b652073757265207468617420796f752061726520746865206f776e6572206f66207468652070757070792e596f757220707570707920646f6573206e6f742072657175697265207265766976696e672ea264697066735822122057a5f3324aa0865baddd2f689711ee99e7bf0a5338729930c2d9fcc2ef46acf164736f6c63430006000033",
  "source": "pragma solidity ^0.6.0;\r\n\r\nimport \"@openzeppelin/contracts/math/SafeMath.sol\";\r\n\r\ncontract Puppy_Attack {\r\n    // Make use of SafeMath to do calculation that will not be result in overflow / incorrectness\r\n    using SafeMath for uint;\r\n    \r\n    // Constants\r\n    uint reviveRate = 0.01 ether;\r\n    uint levelUpFee = 0.005 ether;\r\n\r\n    struct Puppy {\r\n        uint id;\r\n        string name;\r\n        uint level;\r\n        address owner;\r\n    }\r\n    \r\n    mapping(address => uint[]) internal userToPuppy; //mapping (address -> uint[puppyId])\r\n\r\n    Puppy[] allPuppies;\r\n    \r\n    function getAllPuppiesNumber() public view returns(uint) {\r\n        return allPuppies.length;\r\n    }\r\n    \r\n    function getMyPuppiesLevel(uint puppyId) public view returns(uint) {\r\n        return allPuppies[puppyId].level;\r\n    }\r\n    \r\n    function getMyPuppiesName(uint puppyId) public view returns(string memory) {\r\n        return allPuppies[puppyId].name;\r\n    }\r\n    \r\n    modifier restrictedToOwner(uint puppyId) {\r\n        require(msg.sender == allPuppies[puppyId].owner, \"Please make sure that you are the owner of the puppy.\");\r\n        _;\r\n    }\r\n\r\n    function _create(string memory puppyName) public {\r\n        Puppy memory newPuppy = Puppy(allPuppies.length, puppyName, 5, msg.sender);\r\n        allPuppies.push(newPuppy);\r\n    }\r\n\r\n    function _levelUp(uint puppyId) public payable restrictedToOwner(puppyId) {\r\n        require(allPuppies[puppyId].level > 0, \"Your puppy needs to be revived before you can level it up.\");\r\n        require(msg.value == levelUpFee, \"Please pay the exact level up fee of 0.005 ether.\");\r\n        allPuppies[puppyId].level = allPuppies[puppyId].level.add(1);\r\n    }\r\n    \r\n    function _changeName(uint puppyId, string memory newName) public restrictedToOwner(puppyId) {\r\n        Puppy storage toBeChanged = allPuppies[puppyId];\r\n        toBeChanged.name = newName;\r\n    }\r\n    \r\n    event FailAttack(uint _attackingPuppyId, uint _targetedPuppyId);\r\n    event SuccessAttack(uint _attackingPuppyId, uint _targetedPuppyId);\r\n    \r\n    function _attack(uint _attackingPuppyId, uint _targetedPuppyId) public restrictedToOwner(_attackingPuppyId){\r\n        require(allPuppies[_targetedPuppyId].level > 0);\r\n        Puppy storage attackingPuppy = allPuppies[_attackingPuppyId];\r\n        Puppy storage targetedPuppy = allPuppies[_targetedPuppyId];\r\n\r\n        uint rand = randMod(100);\r\n        if (attackingPuppy.level > targetedPuppy.level && rand > 70 || attackingPuppy.level == targetedPuppy.level && rand > 50 || attackingPuppy.level < targetedPuppy.level && rand > 30) {\r\n                emit FailAttack(_attackingPuppyId, _targetedPuppyId);\r\n        } else {\r\n            attackingPuppy.level = attackingPuppy.level.add(1);\r\n            targetedPuppy.level = targetedPuppy.level.sub(1);\r\n            emit SuccessAttack(_attackingPuppyId, _targetedPuppyId);\r\n        }\r\n    }\r\n\r\n    function randMod(uint _modulus) internal view returns(uint) {\r\n        uint randNonce = 0;\r\n        randNonce = randNonce.add(1);\r\n        return uint(keccak256(abi.encodePacked(now, msg.sender, randNonce))) % _modulus;\r\n    }\r\n    \r\n    function revive(uint puppyId) public payable restrictedToOwner(puppyId) {\r\n        require(allPuppies[puppyId].level == 0, \"Your puppy does not require reviving.\");\r\n        require(msg.value == reviveRate, \"You will need to pay 0.01 ether to revive your puppy.\");\r\n        allPuppies[puppyId].level = allPuppies[puppyId].level.add(1);\r\n    }\r\n}",
  "sourcePath": "C:/Users/larlo/Downloads/Github/Blockchain/Puppies-Attack/contracts/Puppy_Attack.sol",
  "compiler": {
    "name": "solc",
    "version": "0.6.0+commit.26b70077.Emscripten.clang"
  },
  "schemaVersion": "3.3.3",
  "updatedAt": "2020-12-23T13:55:23.388Z",
  "devdoc": {
    "methods": {}
  },
  "userdoc": {
    "methods": {}
  }
}