{
  "contractName": "Puppy_Attack",
  "abi": [
    {
      "anonymous": false,
      "inputs": [
        {
          "indexed": false,
          "internalType": "uint256",
          "name": "_attackingPuppyId",
          "type": "uint256"
        },
        {
          "indexed": false,
          "internalType": "uint256",
          "name": "_targetedPuppyId",
          "type": "uint256"
        }
      ],
      "name": "FailAttack",
      "type": "event"
    },
    {
      "anonymous": false,
      "inputs": [
        {
          "indexed": false,
          "internalType": "uint256",
          "name": "_attackingPuppyId",
          "type": "uint256"
        },
        {
          "indexed": false,
          "internalType": "uint256",
          "name": "_targetedPuppyId",
          "type": "uint256"
        }
      ],
      "name": "SuccessAttack",
      "type": "event"
    },
    {
      "inputs": [
        {
          "internalType": "uint256",
          "name": "",
          "type": "uint256"
        }
      ],
      "name": "allPuppies",
      "outputs": [
        {
          "internalType": "uint256",
          "name": "id",
          "type": "uint256"
        },
        {
          "internalType": "string",
          "name": "name",
          "type": "string"
        },
        {
          "internalType": "uint256",
          "name": "level",
          "type": "uint256"
        },
        {
          "internalType": "address",
          "name": "owner",
          "type": "address"
        }
      ],
      "stateMutability": "view",
      "type": "function",
      "constant": true
    },
    {
      "inputs": [],
      "name": "getAllPuppiesNumber",
      "outputs": [
        {
          "internalType": "uint256",
          "name": "",
          "type": "uint256"
        }
      ],
      "stateMutability": "view",
      "type": "function",
      "constant": true
    },
    {
      "inputs": [
        {
          "internalType": "uint256",
          "name": "puppyId",
          "type": "uint256"
        }
      ],
      "name": "getMyPuppiesLevel",
      "outputs": [
        {
          "internalType": "uint256",
          "name": "",
          "type": "uint256"
        }
      ],
      "stateMutability": "view",
      "type": "function",
      "constant": true
    },
    {
      "inputs": [
        {
          "internalType": "uint256",
          "name": "puppyId",
          "type": "uint256"
        }
      ],
      "name": "getMyPuppiesName",
      "outputs": [
        {
          "internalType": "string",
          "name": "",
          "type": "string"
        }
      ],
      "stateMutability": "view",
      "type": "function",
      "constant": true
    },
    {
      "inputs": [
        {
          "internalType": "string",
          "name": "puppyName",
          "type": "string"
        }
      ],
      "name": "_create",
      "outputs": [],
      "stateMutability": "nonpayable",
      "type": "function"
    },
    {
      "inputs": [
        {
          "internalType": "uint256",
          "name": "puppyId",
          "type": "uint256"
        }
      ],
      "name": "_levelUp",
      "outputs": [],
      "stateMutability": "payable",
      "type": "function",
      "payable": true
    },
    {
      "inputs": [
        {
          "internalType": "uint256",
          "name": "puppyId",
          "type": "uint256"
        },
        {
          "internalType": "string",
          "name": "newName",
          "type": "string"
        }
      ],
      "name": "_changeName",
      "outputs": [],
      "stateMutability": "nonpayable",
      "type": "function"
    },
    {
      "inputs": [
        {
          "internalType": "uint256",
          "name": "_attackingPuppyId",
          "type": "uint256"
        },
        {
          "internalType": "uint256",
          "name": "_targetedPuppyId",
          "type": "uint256"
        }
      ],
      "name": "_attack",
      "outputs": [],
      "stateMutability": "nonpayable",
      "type": "function"
    },
    {
      "inputs": [
        {
          "internalType": "uint256",
          "name": "puppyId",
          "type": "uint256"
        }
      ],
      "name": "revive",
      "outputs": [],
      "stateMutability": "payable",
      "type": "function",
      "payable": true
    }
  ],
  "bytecode": "0x6080604052662386f26fc100006000556611c37937e0800060015534801561002657600080fd5b506113b7806100366000396000f3fe6080604052600436106100865760003560e01c80638baecc21116100595780638baecc21146102cf5780639f9ee908146102fd578063af3634d714610328578063b40693ce146103f0578063ee392666146104a457610086565b8063090414491461008b578063278cc0eb146100da5780634a9010bb146101cf5780634da89bfb146101fd575b600080fd5b34801561009757600080fd5b506100c4600480360360208110156100ae57600080fd5b81019080803590602001909291905050506104e9565b6040518082815260200191505060405180910390f35b3480156100e657600080fd5b50610113600480360360208110156100fd57600080fd5b8101908080359060200190929190505050610511565b60405180858152602001806020018481526020018373ffffffffffffffffffffffffffffffffffffffff1673ffffffffffffffffffffffffffffffffffffffff168152602001828103825285818151815260200191508051906020019080838360005b83811015610191578082015181840152602081019050610176565b50505050905090810190601f1680156101be5780820380516001836020036101000a031916815260200191505b509550505050505060405180910390f35b6101fb600480360360208110156101e557600080fd5b8101908080359060200190929190505050610606565b005b34801561020957600080fd5b506102cd6004803603604081101561022057600080fd5b81019080803590602001909291908035906020019064010000000081111561024757600080fd5b82018360208201111561025957600080fd5b8035906020019184600183028401116401000000008311171561027b57600080fd5b91908080601f016020809104026020016040519081016040528093929190818152602001838380828437600081840152601f19601f8201169050808301925050505050505091929192905050506107f2565b005b6102fb600480360360208110156102e557600080fd5b81019080803590602001909291905050506108f3565b005b34801561030957600080fd5b50610312610adf565b6040518082815260200191505060405180910390f35b34801561033457600080fd5b506103ee6004803603602081101561034b57600080fd5b810190808035906020019064010000000081111561036857600080fd5b82018360208201111561037a57600080fd5b8035906020019184600183028401116401000000008311171561039c57600080fd5b91908080601f016020809104026020016040519081016040528093929190818152602001838380828437600081840152601f19601f820116905080830192505050505050509192919290505050610aec565b005b3480156103fc57600080fd5b506104296004803603602081101561041357600080fd5b8101908080359060200190929190505050610bdd565b6040518080602001828103825283818151815260200191508051906020019080838360005b8381101561046957808201518184015260208101905061044e565b50505050905090810190601f1680156104965780820380516001836020036101000a031916815260200191505b509250505060405180910390f35b3480156104b057600080fd5b506104e7600480360360408110156104c757600080fd5b810190808035906020019092919080359060200190929190505050610c9d565b005b6000600382815481106104f857fe5b9060005260206000209060040201600201549050919050565b6003818154811061051e57fe5b9060005260206000209060040201600091509050806000015490806001018054600181600116156101000203166002900480601f0160208091040260200160405190810160405280929190818152602001828054600181600116156101000203166002900480156105d05780601f106105a5576101008083540402835291602001916105d0565b820191906000526020600020905b8154815290600101906020018083116105b357829003601f168201915b5050505050908060020154908060030160009054906101000a900473ffffffffffffffffffffffffffffffffffffffff16905084565b806003818154811061061457fe5b906000526020600020906004020160030160009054906101000a900473ffffffffffffffffffffffffffffffffffffffff1673ffffffffffffffffffffffffffffffffffffffff163373ffffffffffffffffffffffffffffffffffffffff16146106c9576040517f08c379a00000000000000000000000000000000000000000000000000000000081526004018080602001828103825260358152602001806113286035913960400191505060405180910390fd5b6000600383815481106106d857fe5b90600052602060002090600402016002015411610740576040517f08c379a000000000000000000000000000000000000000000000000000000000815260040180806020018281038252603a815260200180611288603a913960400191505060405180910390fd5b600154341461079a576040517f08c379a00000000000000000000000000000000000000000000000000000000081526004018080602001828103825260318152602001806112f76031913960400191505060405180910390fd5b6107cc6001600384815481106107ac57fe5b906000526020600020906004020160020154610efb90919063ffffffff16565b600383815481106107d957fe5b9060005260206000209060040201600201819055505050565b816003818154811061080057fe5b906000526020600020906004020160030160009054906101000a900473ffffffffffffffffffffffffffffffffffffffff1673ffffffffffffffffffffffffffffffffffffffff163373ffffffffffffffffffffffffffffffffffffffff16146108b5576040517f08c379a00000000000000000000000000000000000000000000000000000000081526004018080602001828103825260358152602001806113286035913960400191505060405180910390fd5b6000600384815481106108c457fe5b90600052602060002090600402019050828160010190805190602001906108ec929190611124565b5050505050565b806003818154811061090157fe5b906000526020600020906004020160030160009054906101000a900473ffffffffffffffffffffffffffffffffffffffff1673ffffffffffffffffffffffffffffffffffffffff163373ffffffffffffffffffffffffffffffffffffffff16146109b6576040517f08c379a00000000000000000000000000000000000000000000000000000000081526004018080602001828103825260358152602001806113286035913960400191505060405180910390fd5b6000600383815481106109c557fe5b90600052602060002090600402016002015414610a2d576040517f08c379a000000000000000000000000000000000000000000000000000000000815260040180806020018281038252602581526020018061135d6025913960400191505060405180910390fd5b6000543414610a87576040517f08c379a00000000000000000000000000000000000000000000000000000000081526004018080602001828103825260358152602001806112c26035913960400191505060405180910390fd5b610ab9600160038481548110610a9957fe5b906000526020600020906004020160020154610efb90919063ffffffff16565b60038381548110610ac657fe5b9060005260206000209060040201600201819055505050565b6000600380549050905090565b610af46111a4565b60405180608001604052806003805490508152602001838152602001600581526020013373ffffffffffffffffffffffffffffffffffffffff1681525090506003819080600181540180825580915050600190039060005260206000209060040201600090919091909150600082015181600001556020820151816001019080519060200190610b859291906111e2565b506040820151816002015560608201518160030160006101000a81548173ffffffffffffffffffffffffffffffffffffffff021916908373ffffffffffffffffffffffffffffffffffffffff16021790555050505050565b606060038281548110610bec57fe5b90600052602060002090600402016001018054600181600116156101000203166002900480601f016020809104026020016040519081016040528092919081815260200182805460018160011615610100020316600290048015610c915780601f10610c6657610100808354040283529160200191610c91565b820191906000526020600020905b815481529060010190602001808311610c7457829003601f168201915b50505050509050919050565b8160038181548110610cab57fe5b906000526020600020906004020160030160009054906101000a900473ffffffffffffffffffffffffffffffffffffffff1673ffffffffffffffffffffffffffffffffffffffff163373ffffffffffffffffffffffffffffffffffffffff1614610d60576040517f08c379a00000000000000000000000000000000000000000000000000000000081526004018080602001828103825260358152602001806113286035913960400191505060405180910390fd5b600060038381548110610d6f57fe5b90600052602060002090600402016002015411610d8b57600080fd5b600060038481548110610d9a57fe5b90600052602060002090600402019050600060038481548110610db957fe5b906000526020600020906004020190506000610dd56064610f83565b905081600201548360020154118015610dee5750604681115b80610e0c575081600201548360020154148015610e0b5750603281115b5b80610e2a575081600201548360020154108015610e295750601e81115b5b15610e73577f746d7417022fd01d9e0ec9c752ab63e9e99610ae98647ae3bc4934a9234ae77a8686604051808381526020018281526020019250505060405180910390a1610ef3565b610e8b60018460020154610efb90919063ffffffff16565b8360020181905550610eab6001836002015461101a90919063ffffffff16565b82600201819055507f9d70f5f548eae84d9acc2e158a9e45f89a5847068d9a2e10d87f5a0a330b10638686604051808381526020018281526020019250505060405180910390a15b505050505050565b600080828401905083811015610f79576040517f08c379a000000000000000000000000000000000000000000000000000000000815260040180806020018281038252601b8152602001807f536166654d6174683a206164646974696f6e206f766572666c6f77000000000081525060200191505060405180910390fd5b8091505092915050565b60008060009050610f9e600182610efb90919063ffffffff16565b905082423383604051602001808481526020018373ffffffffffffffffffffffffffffffffffffffff1673ffffffffffffffffffffffffffffffffffffffff1660601b815260140182815260200193505050506040516020818303038152906040528051906020012060001c8161101157fe5b06915050919050565b600061105c83836040518060400160405280601e81526020017f536166654d6174683a207375627472616374696f6e206f766572666c6f770000815250611064565b905092915050565b6000838311158290611111576040517f08c379a00000000000000000000000000000000000000000000000000000000081526004018080602001828103825283818151815260200191508051906020019080838360005b838110156110d65780820151818401526020810190506110bb565b50505050905090810190601f1680156111035780820380516001836020036101000a031916815260200191505b509250505060405180910390fd5b5060008385039050809150509392505050565b828054600181600116156101000203166002900490600052602060002090601f016020900481019282601f1061116557805160ff1916838001178555611193565b82800160010185558215611193579182015b82811115611192578251825591602001919060010190611177565b5b5090506111a09190611262565b5090565b6040518060800160405280600081526020016060815260200160008152602001600073ffffffffffffffffffffffffffffffffffffffff1681525090565b828054600181600116156101000203166002900490600052602060002090601f016020900481019282601f1061122357805160ff1916838001178555611251565b82800160010185558215611251579182015b82811115611250578251825591602001919060010190611235565b5b50905061125e9190611262565b5090565b61128491905b80821115611280576000816000905550600101611268565b5090565b9056fe596f7572207075707079206e6565647320746f2062652072657669766564206265666f726520796f752063616e206c6576656c2069742075702e596f752077696c6c206e65656420746f2070617920302e303120657468657220746f2072657669766520796f75722070757070792e506c656173652070617920746865206578616374206c6576656c20757020666565206f6620302e3030352065746865722e506c65617365206d616b652073757265207468617420796f752061726520746865206f776e6572206f66207468652070757070792e596f757220707570707920646f6573206e6f742072657175697265207265766976696e672ea26469706673582212209c672e8dfedba394d0871c137d531f8f77758c97c6edb09c7193817608e0e8d364736f6c63430006000033",
  "source": "pragma solidity ^0.6.0;\r\n\r\nimport \"@openzeppelin/contracts/math/SafeMath.sol\";\r\n\r\ncontract Puppy_Attack {\r\n    // Make use of SafeMath to do calculation that will not be result in overflow / incorrectness\r\n    using SafeMath for uint;\r\n    \r\n    // Constants\r\n    uint reviveRate = 0.01 ether;\r\n    uint levelUpFee = 0.005 ether;\r\n\r\n    struct Puppy {\r\n        uint id;\r\n        string name;\r\n        uint level;\r\n        address owner;\r\n    }\r\n    \r\n    mapping(address => uint[]) internal userToPuppy; //mapping (address -> uint[puppyId])\r\n\r\n    Puppy[] public allPuppies;\r\n    \r\n    function getAllPuppiesNumber() public view returns(uint) {\r\n        return allPuppies.length;\r\n    }\r\n    \r\n    function getMyPuppiesLevel(uint puppyId) public view returns(uint) {\r\n        return allPuppies[puppyId].level;\r\n    }\r\n    \r\n    function getMyPuppiesName(uint puppyId) public view returns(string memory) {\r\n        return allPuppies[puppyId].name;\r\n    }\r\n    \r\n    modifier restrictedToOwner(uint puppyId) {\r\n        require(msg.sender == allPuppies[puppyId].owner, \"Please make sure that you are the owner of the puppy.\");\r\n        _;\r\n    }\r\n\r\n    function _create(string memory puppyName) public {\r\n        Puppy memory newPuppy = Puppy(allPuppies.length, puppyName, 5, msg.sender);\r\n        allPuppies.push(newPuppy);\r\n    }\r\n\r\n    function _levelUp(uint puppyId) public payable restrictedToOwner(puppyId) {\r\n        require(allPuppies[puppyId].level > 0, \"Your puppy needs to be revived before you can level it up.\");\r\n        require(msg.value == levelUpFee, \"Please pay the exact level up fee of 0.005 ether.\");\r\n        allPuppies[puppyId].level = allPuppies[puppyId].level.add(1);\r\n    }\r\n    \r\n    function _changeName(uint puppyId, string memory newName) public restrictedToOwner(puppyId) {\r\n        Puppy storage toBeChanged = allPuppies[puppyId];\r\n        toBeChanged.name = newName;\r\n    }\r\n    \r\n    event FailAttack(uint _attackingPuppyId, uint _targetedPuppyId);\r\n    event SuccessAttack(uint _attackingPuppyId, uint _targetedPuppyId);\r\n    \r\n    function _attack(uint _attackingPuppyId, uint _targetedPuppyId) public restrictedToOwner(_attackingPuppyId){\r\n        require(allPuppies[_targetedPuppyId].level > 0);\r\n        Puppy storage attackingPuppy = allPuppies[_attackingPuppyId];\r\n        Puppy storage targetedPuppy = allPuppies[_targetedPuppyId];\r\n\r\n        uint rand = randMod(100);\r\n        if (attackingPuppy.level > targetedPuppy.level && rand > 70 || attackingPuppy.level == targetedPuppy.level && rand > 50 || attackingPuppy.level < targetedPuppy.level && rand > 30) {\r\n                emit FailAttack(_attackingPuppyId, _targetedPuppyId);\r\n        } else {\r\n            attackingPuppy.level = attackingPuppy.level.add(1);\r\n            targetedPuppy.level = targetedPuppy.level.sub(1);\r\n            emit SuccessAttack(_attackingPuppyId, _targetedPuppyId);\r\n        }\r\n    }\r\n\r\n    function randMod(uint _modulus) internal view returns(uint) {\r\n        uint randNonce = 0;\r\n        randNonce = randNonce.add(1);\r\n        return uint(keccak256(abi.encodePacked(now, msg.sender, randNonce))) % _modulus;\r\n    }\r\n    \r\n    function revive(uint puppyId) public payable restrictedToOwner(puppyId) {\r\n        require(allPuppies[puppyId].level == 0, \"Your puppy does not require reviving.\");\r\n        require(msg.value == reviveRate, \"You will need to pay 0.01 ether to revive your puppy.\");\r\n        allPuppies[puppyId].level = allPuppies[puppyId].level.add(1);\r\n    }\r\n}",
  "sourcePath": "C:/Users/larlo/Downloads/Github/Blockchain/Puppies-Attack/contracts/Puppy_Attack.sol",
  "compiler": {
    "name": "solc",
    "version": "0.6.0+commit.26b70077.Emscripten.clang"
  },
  "schemaVersion": "3.3.3",
  "updatedAt": "2020-12-23T14:15:35.551Z",
  "networkType": "ethereum",
  "devdoc": {
    "methods": {}
  },
  "userdoc": {
    "methods": {}
  }
}