{
  "contractName": "Puppy_Attack",
  "abi": [
    {
      "anonymous": false,
      "inputs": [
        {
          "indexed": false,
          "internalType": "uint256",
          "name": "_attackingPuppyId",
          "type": "uint256"
        },
        {
          "indexed": false,
          "internalType": "uint256",
          "name": "_targetedPuppyId",
          "type": "uint256"
        }
      ],
      "name": "FailAttack",
      "type": "event"
    },
    {
      "anonymous": false,
      "inputs": [
        {
          "indexed": false,
          "internalType": "uint256",
          "name": "_attackingPuppyId",
          "type": "uint256"
        },
        {
          "indexed": false,
          "internalType": "uint256",
          "name": "_targetedPuppyId",
          "type": "uint256"
        }
      ],
      "name": "SuccessAttack",
      "type": "event"
    },
    {
      "inputs": [
        {
          "internalType": "uint256",
          "name": "",
          "type": "uint256"
        }
      ],
      "name": "allPuppies",
      "outputs": [
        {
          "internalType": "uint256",
          "name": "id",
          "type": "uint256"
        },
        {
          "internalType": "string",
          "name": "name",
          "type": "string"
        },
        {
          "internalType": "uint256",
          "name": "level",
          "type": "uint256"
        },
        {
          "internalType": "address",
          "name": "owner",
          "type": "address"
        }
      ],
      "stateMutability": "view",
      "type": "function",
      "constant": true
    },
    {
      "inputs": [
        {
          "internalType": "address",
          "name": "",
          "type": "address"
        },
        {
          "internalType": "uint256",
          "name": "",
          "type": "uint256"
        }
      ],
      "name": "userToPuppy",
      "outputs": [
        {
          "internalType": "uint256",
          "name": "",
          "type": "uint256"
        }
      ],
      "stateMutability": "view",
      "type": "function",
      "constant": true
    },
    {
      "inputs": [],
      "name": "getAllPuppiesNumber",
      "outputs": [
        {
          "internalType": "uint256",
          "name": "",
          "type": "uint256"
        }
      ],
      "stateMutability": "view",
      "type": "function",
      "constant": true
    },
    {
      "inputs": [
        {
          "internalType": "uint256",
          "name": "puppyId",
          "type": "uint256"
        }
      ],
      "name": "getMyPuppiesLevel",
      "outputs": [
        {
          "internalType": "uint256",
          "name": "",
          "type": "uint256"
        }
      ],
      "stateMutability": "view",
      "type": "function",
      "constant": true
    },
    {
      "inputs": [
        {
          "internalType": "uint256",
          "name": "puppyId",
          "type": "uint256"
        }
      ],
      "name": "getMyPuppiesName",
      "outputs": [
        {
          "internalType": "string",
          "name": "",
          "type": "string"
        }
      ],
      "stateMutability": "view",
      "type": "function",
      "constant": true
    },
    {
      "inputs": [
        {
          "internalType": "string",
          "name": "puppyName",
          "type": "string"
        }
      ],
      "name": "_create",
      "outputs": [],
      "stateMutability": "nonpayable",
      "type": "function"
    },
    {
      "inputs": [
        {
          "internalType": "uint256",
          "name": "puppyId",
          "type": "uint256"
        }
      ],
      "name": "_levelUp",
      "outputs": [],
      "stateMutability": "payable",
      "type": "function",
      "payable": true
    },
    {
      "inputs": [
        {
          "internalType": "uint256",
          "name": "puppyId",
          "type": "uint256"
        },
        {
          "internalType": "string",
          "name": "newName",
          "type": "string"
        }
      ],
      "name": "_changeName",
      "outputs": [],
      "stateMutability": "nonpayable",
      "type": "function"
    },
    {
      "inputs": [
        {
          "internalType": "uint256",
          "name": "_attackingPuppyId",
          "type": "uint256"
        },
        {
          "internalType": "uint256",
          "name": "_targetedPuppyId",
          "type": "uint256"
        }
      ],
      "name": "_attack",
      "outputs": [],
      "stateMutability": "nonpayable",
      "type": "function"
    },
    {
      "inputs": [
        {
          "internalType": "uint256",
          "name": "puppyId",
          "type": "uint256"
        }
      ],
      "name": "revive",
      "outputs": [],
      "stateMutability": "payable",
      "type": "function",
      "payable": true
    }
  ],
  "bytecode": "0x6080604052662386f26fc100006000556611c37937e0800060015534801561002657600080fd5b5061145f806100366000396000f3fe6080604052600436106100915760003560e01c80639f9ee908116100595780639f9ee90814610308578063a14c530014610333578063af3634d7146103a2578063b40693ce1461046a578063ee3926661461051e57610091565b80630904144914610096578063278cc0eb146100e55780634a9010bb146101da5780634da89bfb146102085780638baecc21146102da575b600080fd5b3480156100a257600080fd5b506100cf600480360360208110156100b957600080fd5b8101908080359060200190929190505050610563565b6040518082815260200191505060405180910390f35b3480156100f157600080fd5b5061011e6004803603602081101561010857600080fd5b810190808035906020019092919050505061058b565b60405180858152602001806020018481526020018373ffffffffffffffffffffffffffffffffffffffff1673ffffffffffffffffffffffffffffffffffffffff168152602001828103825285818151815260200191508051906020019080838360005b8381101561019c578082015181840152602081019050610181565b50505050905090810190601f1680156101c95780820380516001836020036101000a031916815260200191505b509550505050505060405180910390f35b610206600480360360208110156101f057600080fd5b8101908080359060200190929190505050610680565b005b34801561021457600080fd5b506102d86004803603604081101561022b57600080fd5b81019080803590602001909291908035906020019064010000000081111561025257600080fd5b82018360208201111561026457600080fd5b8035906020019184600183028401116401000000008311171561028657600080fd5b91908080601f016020809104026020016040519081016040528093929190818152602001838380828437600081840152601f19601f82011690508083019250505050505050919291929050505061086c565b005b610306600480360360208110156102f057600080fd5b810190808035906020019092919050505061096d565b005b34801561031457600080fd5b5061031d610b59565b6040518082815260200191505060405180910390f35b34801561033f57600080fd5b5061038c6004803603604081101561035657600080fd5b81019080803573ffffffffffffffffffffffffffffffffffffffff16906020019092919080359060200190929190505050610b66565b6040518082815260200191505060405180910390f35b3480156103ae57600080fd5b50610468600480360360208110156103c557600080fd5b81019080803590602001906401000000008111156103e257600080fd5b8201836020820111156103f457600080fd5b8035906020019184600183028401116401000000008311171561041657600080fd5b91908080601f016020809104026020016040519081016040528093929190818152602001838380828437600081840152601f19601f820116905080830192505050505050509192919290505050610b94565b005b34801561047657600080fd5b506104a36004803603602081101561048d57600080fd5b8101908080359060200190929190505050610c85565b6040518080602001828103825283818151815260200191508051906020019080838360005b838110156104e35780820151818401526020810190506104c8565b50505050905090810190601f1680156105105780820380516001836020036101000a031916815260200191505b509250505060405180910390f35b34801561052a57600080fd5b506105616004803603604081101561054157600080fd5b810190808035906020019092919080359060200190929190505050610d45565b005b60006003828154811061057257fe5b9060005260206000209060040201600201549050919050565b6003818154811061059857fe5b9060005260206000209060040201600091509050806000015490806001018054600181600116156101000203166002900480601f01602080910402602001604051908101604052809291908181526020018280546001816001161561010002031660029004801561064a5780601f1061061f5761010080835404028352916020019161064a565b820191906000526020600020905b81548152906001019060200180831161062d57829003601f168201915b5050505050908060020154908060030160009054906101000a900473ffffffffffffffffffffffffffffffffffffffff16905084565b806003818154811061068e57fe5b906000526020600020906004020160030160009054906101000a900473ffffffffffffffffffffffffffffffffffffffff1673ffffffffffffffffffffffffffffffffffffffff163373ffffffffffffffffffffffffffffffffffffffff1614610743576040517f08c379a00000000000000000000000000000000000000000000000000000000081526004018080602001828103825260358152602001806113d06035913960400191505060405180910390fd5b60006003838154811061075257fe5b906000526020600020906004020160020154116107ba576040517f08c379a000000000000000000000000000000000000000000000000000000000815260040180806020018281038252603a815260200180611330603a913960400191505060405180910390fd5b6001543414610814576040517f08c379a000000000000000000000000000000000000000000000000000000000815260040180806020018281038252603181526020018061139f6031913960400191505060405180910390fd5b61084660016003848154811061082657fe5b906000526020600020906004020160020154610fa390919063ffffffff16565b6003838154811061085357fe5b9060005260206000209060040201600201819055505050565b816003818154811061087a57fe5b906000526020600020906004020160030160009054906101000a900473ffffffffffffffffffffffffffffffffffffffff1673ffffffffffffffffffffffffffffffffffffffff163373ffffffffffffffffffffffffffffffffffffffff161461092f576040517f08c379a00000000000000000000000000000000000000000000000000000000081526004018080602001828103825260358152602001806113d06035913960400191505060405180910390fd5b60006003848154811061093e57fe5b90600052602060002090600402019050828160010190805190602001906109669291906111cc565b5050505050565b806003818154811061097b57fe5b906000526020600020906004020160030160009054906101000a900473ffffffffffffffffffffffffffffffffffffffff1673ffffffffffffffffffffffffffffffffffffffff163373ffffffffffffffffffffffffffffffffffffffff1614610a30576040517f08c379a00000000000000000000000000000000000000000000000000000000081526004018080602001828103825260358152602001806113d06035913960400191505060405180910390fd5b600060038381548110610a3f57fe5b90600052602060002090600402016002015414610aa7576040517f08c379a00000000000000000000000000000000000000000000000000000000081526004018080602001828103825260258152602001806114056025913960400191505060405180910390fd5b6000543414610b01576040517f08c379a000000000000000000000000000000000000000000000000000000000815260040180806020018281038252603581526020018061136a6035913960400191505060405180910390fd5b610b33600160038481548110610b1357fe5b906000526020600020906004020160020154610fa390919063ffffffff16565b60038381548110610b4057fe5b9060005260206000209060040201600201819055505050565b6000600380549050905090565b60026020528160005260406000208181548110610b7f57fe5b90600052602060002001600091509150505481565b610b9c61124c565b60405180608001604052806003805490508152602001838152602001600581526020013373ffffffffffffffffffffffffffffffffffffffff1681525090506003819080600181540180825580915050600190039060005260206000209060040201600090919091909150600082015181600001556020820151816001019080519060200190610c2d92919061128a565b506040820151816002015560608201518160030160006101000a81548173ffffffffffffffffffffffffffffffffffffffff021916908373ffffffffffffffffffffffffffffffffffffffff16021790555050505050565b606060038281548110610c9457fe5b90600052602060002090600402016001018054600181600116156101000203166002900480601f016020809104026020016040519081016040528092919081815260200182805460018160011615610100020316600290048015610d395780601f10610d0e57610100808354040283529160200191610d39565b820191906000526020600020905b815481529060010190602001808311610d1c57829003601f168201915b50505050509050919050565b8160038181548110610d5357fe5b906000526020600020906004020160030160009054906101000a900473ffffffffffffffffffffffffffffffffffffffff1673ffffffffffffffffffffffffffffffffffffffff163373ffffffffffffffffffffffffffffffffffffffff1614610e08576040517f08c379a00000000000000000000000000000000000000000000000000000000081526004018080602001828103825260358152602001806113d06035913960400191505060405180910390fd5b600060038381548110610e1757fe5b90600052602060002090600402016002015411610e3357600080fd5b600060038481548110610e4257fe5b90600052602060002090600402019050600060038481548110610e6157fe5b906000526020600020906004020190506000610e7d606461102b565b905081600201548360020154118015610e965750604681115b80610eb4575081600201548360020154148015610eb35750603281115b5b80610ed2575081600201548360020154108015610ed15750601e81115b5b15610f1b577f746d7417022fd01d9e0ec9c752ab63e9e99610ae98647ae3bc4934a9234ae77a8686604051808381526020018281526020019250505060405180910390a1610f9b565b610f3360018460020154610fa390919063ffffffff16565b8360020181905550610f53600183600201546110c290919063ffffffff16565b82600201819055507f9d70f5f548eae84d9acc2e158a9e45f89a5847068d9a2e10d87f5a0a330b10638686604051808381526020018281526020019250505060405180910390a15b505050505050565b600080828401905083811015611021576040517f08c379a000000000000000000000000000000000000000000000000000000000815260040180806020018281038252601b8152602001807f536166654d6174683a206164646974696f6e206f766572666c6f77000000000081525060200191505060405180910390fd5b8091505092915050565b60008060009050611046600182610fa390919063ffffffff16565b905082423383604051602001808481526020018373ffffffffffffffffffffffffffffffffffffffff1673ffffffffffffffffffffffffffffffffffffffff1660601b815260140182815260200193505050506040516020818303038152906040528051906020012060001c816110b957fe5b06915050919050565b600061110483836040518060400160405280601e81526020017f536166654d6174683a207375627472616374696f6e206f766572666c6f77000081525061110c565b905092915050565b60008383111582906111b9576040517f08c379a00000000000000000000000000000000000000000000000000000000081526004018080602001828103825283818151815260200191508051906020019080838360005b8381101561117e578082015181840152602081019050611163565b50505050905090810190601f1680156111ab5780820380516001836020036101000a031916815260200191505b509250505060405180910390fd5b5060008385039050809150509392505050565b828054600181600116156101000203166002900490600052602060002090601f016020900481019282601f1061120d57805160ff191683800117855561123b565b8280016001018555821561123b579182015b8281111561123a57825182559160200191906001019061121f565b5b509050611248919061130a565b5090565b6040518060800160405280600081526020016060815260200160008152602001600073ffffffffffffffffffffffffffffffffffffffff1681525090565b828054600181600116156101000203166002900490600052602060002090601f016020900481019282601f106112cb57805160ff19168380011785556112f9565b828001600101855582156112f9579182015b828111156112f85782518255916020019190600101906112dd565b5b509050611306919061130a565b5090565b61132c91905b80821115611328576000816000905550600101611310565b5090565b9056fe596f7572207075707079206e6565647320746f2062652072657669766564206265666f726520796f752063616e206c6576656c2069742075702e596f752077696c6c206e65656420746f2070617920302e303120657468657220746f2072657669766520796f75722070757070792e506c656173652070617920746865206578616374206c6576656c20757020666565206f6620302e3030352065746865722e506c65617365206d616b652073757265207468617420796f752061726520746865206f776e6572206f66207468652070757070792e596f757220707570707920646f6573206e6f742072657175697265207265766976696e672ea2646970667358221220b808a2c6b2c6098a5e9696fbc71002dffd0813fc66d581c6f3ccf83f9315a8da64736f6c63430006000033",
  "source": "pragma solidity ^0.6.0;\r\n\r\nimport \"@openzeppelin/contracts/math/SafeMath.sol\";\r\n\r\ncontract Puppy_Attack {\r\n    // Make use of SafeMath to do calculation that will not be result in overflow / incorrectness\r\n    using SafeMath for uint;\r\n    \r\n    // Constants\r\n    uint reviveRate = 0.01 ether;\r\n    uint levelUpFee = 0.005 ether;\r\n\r\n    struct Puppy {\r\n        uint id;\r\n        string name;\r\n        uint level;\r\n        address owner;\r\n    }\r\n    \r\n    mapping(address => uint[]) public userToPuppy; //mapping (address -> uint[puppyId])\r\n\r\n    Puppy[] public allPuppies;\r\n    \r\n    function getAllPuppiesNumber() public view returns(uint) {\r\n        return allPuppies.length;\r\n    }\r\n    \r\n    function getMyPuppiesLevel(uint puppyId) public view returns(uint) {\r\n        return allPuppies[puppyId].level;\r\n    }\r\n    \r\n    function getMyPuppiesName(uint puppyId) public view returns(string memory) {\r\n        return allPuppies[puppyId].name;\r\n    }\r\n    \r\n    modifier restrictedToOwner(uint puppyId) {\r\n        require(msg.sender == allPuppies[puppyId].owner, \"Please make sure that you are the owner of the puppy.\");\r\n        _;\r\n    }\r\n\r\n    function _create(string memory puppyName) public {\r\n        Puppy memory newPuppy = Puppy(allPuppies.length, puppyName, 5, msg.sender);\r\n        allPuppies.push(newPuppy);\r\n    }\r\n\r\n    function _levelUp(uint puppyId) public payable restrictedToOwner(puppyId) {\r\n        require(allPuppies[puppyId].level > 0, \"Your puppy needs to be revived before you can level it up.\");\r\n        require(msg.value == levelUpFee, \"Please pay the exact level up fee of 0.005 ether.\");\r\n        allPuppies[puppyId].level = allPuppies[puppyId].level.add(1);\r\n    }\r\n    \r\n    function _changeName(uint puppyId, string memory newName) public restrictedToOwner(puppyId) {\r\n        Puppy storage toBeChanged = allPuppies[puppyId];\r\n        toBeChanged.name = newName;\r\n    }\r\n    \r\n    event FailAttack(uint _attackingPuppyId, uint _targetedPuppyId);\r\n    event SuccessAttack(uint _attackingPuppyId, uint _targetedPuppyId);\r\n    \r\n    function _attack(uint _attackingPuppyId, uint _targetedPuppyId) public restrictedToOwner(_attackingPuppyId){\r\n        require(allPuppies[_targetedPuppyId].level > 0);\r\n        Puppy storage attackingPuppy = allPuppies[_attackingPuppyId];\r\n        Puppy storage targetedPuppy = allPuppies[_targetedPuppyId];\r\n\r\n        uint rand = randMod(100);\r\n        if (attackingPuppy.level > targetedPuppy.level && rand > 70 || attackingPuppy.level == targetedPuppy.level && rand > 50 || attackingPuppy.level < targetedPuppy.level && rand > 30) {\r\n                emit FailAttack(_attackingPuppyId, _targetedPuppyId);\r\n        } else {\r\n            attackingPuppy.level = attackingPuppy.level.add(1);\r\n            targetedPuppy.level = targetedPuppy.level.sub(1);\r\n            emit SuccessAttack(_attackingPuppyId, _targetedPuppyId);\r\n        }\r\n    }\r\n\r\n    function randMod(uint _modulus) internal view returns(uint) {\r\n        uint randNonce = 0;\r\n        randNonce = randNonce.add(1);\r\n        return uint(keccak256(abi.encodePacked(now, msg.sender, randNonce))) % _modulus;\r\n    }\r\n    \r\n    function revive(uint puppyId) public payable restrictedToOwner(puppyId) {\r\n        require(allPuppies[puppyId].level == 0, \"Your puppy does not require reviving.\");\r\n        require(msg.value == reviveRate, \"You will need to pay 0.01 ether to revive your puppy.\");\r\n        allPuppies[puppyId].level = allPuppies[puppyId].level.add(1);\r\n    }\r\n}",
  "sourcePath": "C:/Users/larlo/Downloads/Github/Blockchain/Puppies-Attack/contracts/Puppy_Attack.sol",
  "compiler": {
    "name": "solc",
    "version": "0.6.0+commit.26b70077.Emscripten.clang"
  },
  "schemaVersion": "3.3.3",
  "updatedAt": "2020-12-24T03:28:12.157Z",
  "networkType": "ethereum",
  "devdoc": {
    "methods": {}
  },
  "userdoc": {
    "methods": {}
  }
}