{
  "contractName": "Puppy_Attack",
  "abi": [
    {
      "anonymous": false,
      "inputs": [
        {
          "indexed": false,
          "internalType": "uint256",
          "name": "_attackingPuppyId",
          "type": "uint256"
        },
        {
          "indexed": false,
          "internalType": "uint256",
          "name": "_targetedPuppyId",
          "type": "uint256"
        }
      ],
      "name": "FailAttack",
      "type": "event"
    },
    {
      "anonymous": false,
      "inputs": [
        {
          "indexed": false,
          "internalType": "uint256",
          "name": "_attackingPuppyId",
          "type": "uint256"
        },
        {
          "indexed": false,
          "internalType": "uint256",
          "name": "_targetedPuppyId",
          "type": "uint256"
        }
      ],
      "name": "SuccessAttack",
      "type": "event"
    },
    {
      "inputs": [],
      "name": "getAllPuppiesNumber",
      "outputs": [
        {
          "internalType": "uint256",
          "name": "",
          "type": "uint256"
        }
      ],
      "stateMutability": "view",
      "type": "function",
      "constant": true
    },
    {
      "inputs": [
        {
          "internalType": "uint256",
          "name": "puppyId",
          "type": "uint256"
        }
      ],
      "name": "getMyPuppiesLevel",
      "outputs": [
        {
          "internalType": "uint256",
          "name": "",
          "type": "uint256"
        }
      ],
      "stateMutability": "view",
      "type": "function",
      "constant": true
    },
    {
      "inputs": [
        {
          "internalType": "uint256",
          "name": "puppyId",
          "type": "uint256"
        }
      ],
      "name": "getMyPuppiesName",
      "outputs": [
        {
          "internalType": "string",
          "name": "",
          "type": "string"
        }
      ],
      "stateMutability": "view",
      "type": "function",
      "constant": true
    },
    {
      "inputs": [
        {
          "internalType": "string",
          "name": "puppyName",
          "type": "string"
        },
        {
          "internalType": "uint256",
          "name": "puppyType",
          "type": "uint256"
        }
      ],
      "name": "_create",
      "outputs": [],
      "stateMutability": "nonpayable",
      "type": "function"
    },
    {
      "inputs": [
        {
          "internalType": "uint256",
          "name": "puppyId",
          "type": "uint256"
        }
      ],
      "name": "_levelUp",
      "outputs": [],
      "stateMutability": "payable",
      "type": "function",
      "payable": true
    },
    {
      "inputs": [
        {
          "internalType": "uint256",
          "name": "puppyId",
          "type": "uint256"
        },
        {
          "internalType": "string",
          "name": "newName",
          "type": "string"
        }
      ],
      "name": "_changeName",
      "outputs": [],
      "stateMutability": "nonpayable",
      "type": "function"
    },
    {
      "inputs": [
        {
          "internalType": "uint256",
          "name": "_attackingPuppyId",
          "type": "uint256"
        },
        {
          "internalType": "uint256",
          "name": "_targetedPuppyId",
          "type": "uint256"
        }
      ],
      "name": "_attack",
      "outputs": [],
      "stateMutability": "nonpayable",
      "type": "function"
    },
    {
      "inputs": [
        {
          "internalType": "uint256",
          "name": "puppyId",
          "type": "uint256"
        }
      ],
      "name": "revive",
      "outputs": [],
      "stateMutability": "payable",
      "type": "function",
      "payable": true
    }
  ],
  "bytecode": "0x6080604052662386f26fc100006000556611c37937e0800060015534801561002657600080fd5b506111e3806100366000396000f3fe60806040526004361061007b5760003560e01c80639f9ee9081161004e5780639f9ee908146101fd578063b40693ce14610228578063c8204a3d146102dc578063ee392666146103ae5761007b565b806309041449146100805780634a9010bb146100cf5780634da89bfb146100fd5780638baecc21146101cf575b600080fd5b34801561008c57600080fd5b506100b9600480360360208110156100a357600080fd5b81019080803590602001909291905050506103f3565b6040518082815260200191505060405180910390f35b6100fb600480360360208110156100e557600080fd5b810190808035906020019092919050505061041b565b005b34801561010957600080fd5b506101cd6004803603604081101561012057600080fd5b81019080803590602001909291908035906020019064010000000081111561014757600080fd5b82018360208201111561015957600080fd5b8035906020019184600183028401116401000000008311171561017b57600080fd5b91908080601f016020809104026020016040519081016040528093929190818152602001838380828437600081840152601f19601f820116905080830192505050505050509192919290505050610607565b005b6101fb600480360360208110156101e557600080fd5b8101908080359060200190929190505050610708565b005b34801561020957600080fd5b506102126108f4565b6040518082815260200191505060405180910390f35b34801561023457600080fd5b506102616004803603602081101561024b57600080fd5b8101908080359060200190929190505050610901565b6040518080602001828103825283818151815260200191508051906020019080838360005b838110156102a1578082015181840152602081019050610286565b50505050905090810190601f1680156102ce5780820380516001836020036101000a031916815260200191505b509250505060405180910390f35b3480156102e857600080fd5b506103ac600480360360408110156102ff57600080fd5b810190808035906020019064010000000081111561031c57600080fd5b82018360208201111561032e57600080fd5b8035906020019184600183028401116401000000008311171561035057600080fd5b91908080601f016020809104026020016040519081016040528093929190818152602001838380828437600081840152601f19601f820116905080830192505050505050509192919290803590602001909291905050506109c1565b005b3480156103ba57600080fd5b506103f1600480360360408110156103d157600080fd5b810190808035906020019092919080359060200190929190505050610ac3565b005b60006003828154811061040257fe5b9060005260206000209060050201600201549050919050565b806003818154811061042957fe5b906000526020600020906005020160040160009054906101000a900473ffffffffffffffffffffffffffffffffffffffff1673ffffffffffffffffffffffffffffffffffffffff163373ffffffffffffffffffffffffffffffffffffffff16146104de576040517f08c379a00000000000000000000000000000000000000000000000000000000081526004018080602001828103825260358152602001806111556035913960400191505060405180910390fd5b6000600383815481106104ed57fe5b90600052602060002090600502016002015411610555576040517f08c379a000000000000000000000000000000000000000000000000000000000815260040180806020018281038252603a8152602001806110b5603a913960400191505060405180910390fd5b60015434146105af576040517f08c379a00000000000000000000000000000000000000000000000000000000081526004018080602001828103825260318152602001806111246031913960400191505060405180910390fd5b6105e16001600384815481106105c157fe5b906000526020600020906005020160020154610d2190919063ffffffff16565b600383815481106105ee57fe5b9060005260206000209060050201600201819055505050565b816003818154811061061557fe5b906000526020600020906005020160040160009054906101000a900473ffffffffffffffffffffffffffffffffffffffff1673ffffffffffffffffffffffffffffffffffffffff163373ffffffffffffffffffffffffffffffffffffffff16146106ca576040517f08c379a00000000000000000000000000000000000000000000000000000000081526004018080602001828103825260358152602001806111556035913960400191505060405180910390fd5b6000600384815481106106d957fe5b9060005260206000209060050201905082816001019080519060200190610701929190610f4a565b5050505050565b806003818154811061071657fe5b906000526020600020906005020160040160009054906101000a900473ffffffffffffffffffffffffffffffffffffffff1673ffffffffffffffffffffffffffffffffffffffff163373ffffffffffffffffffffffffffffffffffffffff16146107cb576040517f08c379a00000000000000000000000000000000000000000000000000000000081526004018080602001828103825260358152602001806111556035913960400191505060405180910390fd5b6000600383815481106107da57fe5b90600052602060002090600502016002015414610842576040517f08c379a000000000000000000000000000000000000000000000000000000000815260040180806020018281038252602481526020018061118a6024913960400191505060405180910390fd5b600054341461089c576040517f08c379a00000000000000000000000000000000000000000000000000000000081526004018080602001828103825260358152602001806110ef6035913960400191505060405180910390fd5b6108ce6001600384815481106108ae57fe5b906000526020600020906005020160020154610d2190919063ffffffff16565b600383815481106108db57fe5b9060005260206000209060050201600201819055505050565b6000600380549050905090565b60606003828154811061091057fe5b90600052602060002090600502016001018054600181600116156101000203166002900480601f0160208091040260200160405190810160405280929190818152602001828054600181600116156101000203166002900480156109b55780601f1061098a576101008083540402835291602001916109b5565b820191906000526020600020905b81548152906001019060200180831161099857829003601f168201915b50505050509050919050565b6109c9610fca565b6040518060a001604052806003805490508152602001848152602001600581526020018381526020013373ffffffffffffffffffffffffffffffffffffffff1681525090506003819080600181540180825580915050600190039060005260206000209060050201600090919091909150600082015181600001556020820151816001019080519060200190610a6092919061100f565b50604082015181600201556060820151816003015560808201518160040160006101000a81548173ffffffffffffffffffffffffffffffffffffffff021916908373ffffffffffffffffffffffffffffffffffffffff1602179055505050505050565b8160038181548110610ad157fe5b906000526020600020906005020160040160009054906101000a900473ffffffffffffffffffffffffffffffffffffffff1673ffffffffffffffffffffffffffffffffffffffff163373ffffffffffffffffffffffffffffffffffffffff1614610b86576040517f08c379a00000000000000000000000000000000000000000000000000000000081526004018080602001828103825260358152602001806111556035913960400191505060405180910390fd5b600060038381548110610b9557fe5b90600052602060002090600502016002015411610bb157600080fd5b600060038481548110610bc057fe5b90600052602060002090600502019050600060038481548110610bdf57fe5b906000526020600020906005020190506000610bfb6064610da9565b905081600201548360020154118015610c145750604681115b80610c32575081600201548360020154148015610c315750603281115b5b80610c50575081600201548360020154108015610c4f5750601e81115b5b15610c99577f746d7417022fd01d9e0ec9c752ab63e9e99610ae98647ae3bc4934a9234ae77a8686604051808381526020018281526020019250505060405180910390a1610d19565b610cb160018460020154610d2190919063ffffffff16565b8360020181905550610cd160018360020154610e4090919063ffffffff16565b82600201819055507f9d70f5f548eae84d9acc2e158a9e45f89a5847068d9a2e10d87f5a0a330b10638686604051808381526020018281526020019250505060405180910390a15b505050505050565b600080828401905083811015610d9f576040517f08c379a000000000000000000000000000000000000000000000000000000000815260040180806020018281038252601b8152602001807f536166654d6174683a206164646974696f6e206f766572666c6f77000000000081525060200191505060405180910390fd5b8091505092915050565b60008060009050610dc4600182610d2190919063ffffffff16565b905082423383604051602001808481526020018373ffffffffffffffffffffffffffffffffffffffff1673ffffffffffffffffffffffffffffffffffffffff1660601b815260140182815260200193505050506040516020818303038152906040528051906020012060001c81610e3757fe5b06915050919050565b6000610e8283836040518060400160405280601e81526020017f536166654d6174683a207375627472616374696f6e206f766572666c6f770000815250610e8a565b905092915050565b6000838311158290610f37576040517f08c379a00000000000000000000000000000000000000000000000000000000081526004018080602001828103825283818151815260200191508051906020019080838360005b83811015610efc578082015181840152602081019050610ee1565b50505050905090810190601f168015610f295780820380516001836020036101000a031916815260200191505b509250505060405180910390fd5b5060008385039050809150509392505050565b828054600181600116156101000203166002900490600052602060002090601f016020900481019282601f10610f8b57805160ff1916838001178555610fb9565b82800160010185558215610fb9579182015b82811115610fb8578251825591602001919060010190610f9d565b5b509050610fc6919061108f565b5090565b6040518060a0016040528060008152602001606081526020016000815260200160008152602001600073ffffffffffffffffffffffffffffffffffffffff1681525090565b828054600181600116156101000203166002900490600052602060002090601f016020900481019282601f1061105057805160ff191683800117855561107e565b8280016001018555821561107e579182015b8281111561107d578251825591602001919060010190611062565b5b50905061108b919061108f565b5090565b6110b191905b808211156110ad576000816000905550600101611095565b5090565b9056fe596f7572207075707079206e6565647320746f2062652072657669766564206265666f726520796f752063616e206c6576656c2069742075702e596f752077696c6c206e65656420746f2070617920302e303120657468657220746f2072657669766520796f75722070757070792e506c656173652070617920746865206578616374206c6576656c20757020666565206f6620302e3030352065746865722e506c65617365206d616b652073757265207468617420796f752061726520746865206f776e6572206f66207468652070757070792e596f757220707570707920646f6573206e6f742072657175697265207265766976696e67a264697066735822122097b7fcb4c729315fece6a7b1ae42133a402d0095f8b319f58176c737277617df64736f6c63430006000033",
  "source": "pragma solidity ^0.6.0;\r\n\r\nimport \"@openzeppelin/contracts/math/SafeMath.sol\";\r\n\r\ncontract Puppy_Attack {\r\n    // Make use of SafeMath to do calculation that will not be result in overflow / incorrectness\r\n    using SafeMath for uint;\r\n    \r\n    // Constants\r\n    uint reviveRate = 0.01 ether;\r\n    uint levelUpFee = 0.005 ether;\r\n\r\n    struct Puppy {\r\n        uint id;\r\n        string name;\r\n        uint level;\r\n        uint puppy_type;\r\n        address owner;\r\n    }\r\n    \r\n    mapping(address => uint[]) internal userToPuppy; //mapping (address -> uint[puppyId])\r\n\r\n    Puppy[] allPuppies;\r\n    \r\n    function getAllPuppiesNumber() public view returns(uint) {\r\n        return allPuppies.length;\r\n    }\r\n    \r\n    function getMyPuppiesLevel(uint puppyId) public view returns(uint) {\r\n        return allPuppies[puppyId].level;\r\n    }\r\n    \r\n    function getMyPuppiesName(uint puppyId) public view returns(string memory) {\r\n        return allPuppies[puppyId].name;\r\n    }\r\n    \r\n    modifier restrictedToOwner(uint puppyId) {\r\n        require(msg.sender == allPuppies[puppyId].owner, \"Please make sure that you are the owner of the puppy.\");\r\n        _;\r\n    }\r\n\r\n    function _create(string memory puppyName, uint puppyType) public {\r\n        Puppy memory newPuppy = Puppy(allPuppies.length, puppyName, 5, puppyType, msg.sender);\r\n        allPuppies.push(newPuppy);\r\n    }\r\n\r\n    function _levelUp(uint puppyId) public payable restrictedToOwner(puppyId) {\r\n        require(allPuppies[puppyId].level > 0, \"Your puppy needs to be revived before you can level it up.\");\r\n        require(msg.value == levelUpFee, \"Please pay the exact level up fee of 0.005 ether.\");\r\n        allPuppies[puppyId].level = allPuppies[puppyId].level.add(1);\r\n    }\r\n    \r\n    function _changeName(uint puppyId, string memory newName) public restrictedToOwner(puppyId) {\r\n        Puppy storage toBeChanged = allPuppies[puppyId];\r\n        toBeChanged.name = newName;\r\n    }\r\n    \r\n    event FailAttack(uint _attackingPuppyId, uint _targetedPuppyId);\r\n    event SuccessAttack(uint _attackingPuppyId, uint _targetedPuppyId);\r\n    \r\n    function _attack(uint _attackingPuppyId, uint _targetedPuppyId) public restrictedToOwner(_attackingPuppyId){\r\n        require(allPuppies[_targetedPuppyId].level > 0);\r\n        Puppy storage attackingPuppy = allPuppies[_attackingPuppyId];\r\n        Puppy storage targetedPuppy = allPuppies[_targetedPuppyId];\r\n\r\n        uint rand = randMod(100);\r\n        if (attackingPuppy.level > targetedPuppy.level && rand > 70 || attackingPuppy.level == targetedPuppy.level && rand > 50 || attackingPuppy.level < targetedPuppy.level && rand > 30) {\r\n                emit FailAttack(_attackingPuppyId, _targetedPuppyId);\r\n        } else {\r\n            attackingPuppy.level = attackingPuppy.level.add(1);\r\n            targetedPuppy.level = targetedPuppy.level.sub(1);\r\n            emit SuccessAttack(_attackingPuppyId, _targetedPuppyId);\r\n        }\r\n    }\r\n\r\n    function randMod(uint _modulus) internal view returns(uint) {\r\n        uint randNonce = 0;\r\n        randNonce = randNonce.add(1);\r\n        return uint(keccak256(abi.encodePacked(now, msg.sender, randNonce))) % _modulus;\r\n    }\r\n    \r\n    function revive(uint puppyId) public payable restrictedToOwner(puppyId) {\r\n        require(allPuppies[puppyId].level == 0, \"Your puppy does not require reviving\");\r\n        require(msg.value == reviveRate, \"You will need to pay 0.01 ether to revive your puppy.\");\r\n        allPuppies[puppyId].level = allPuppies[puppyId].level.add(1);\r\n    }\r\n}",
  "sourcePath": "C:/Users/larlo/Downloads/Github/puppies-attack/contracts/Puppy_Attack.sol",
  "compiler": {
    "name": "solc",
    "version": "0.6.0+commit.26b70077.Emscripten.clang"
  },
  "schemaVersion": "3.3.2",
  "updatedAt": "2020-12-15T14:23:49.061Z",
  "networkType": "ethereum",
  "devdoc": {
    "methods": {}
  },
  "userdoc": {
    "methods": {}
  }
}